:020000040800F2
:10000000683F012059220008B7080008B908000815
:10001000BD080008C1080008C5080008000000006D
:100020000000000000000000000000008D02000839
:10003000C908000800000000E1020008A52400082B
:10004000732200087322000873220008732200083C
:100050007322000873220008CB08000873220008EE
:10006000732200087322000873220008732200081C
:10007000732200087322000873220008732200080C
:1000800073220008732200087322000873220008FC
:1000900073220008732200087322000873220008EC
:1000A00073220008732200087322000873220008DC
:1000B0005B1E0008732200087322000873220008E8
:1000C00073220008732200087322000873220008BC
:1000D000732200081506000887060008F7060008C6
:1000E000732200087322000873220008732200089C
:1000F000732200087322000873220008732200088C
:10010000732200087322000873220008732200087B
:1001100067070008D7070008732200087322000849
:10012000732200087322000873220008732200085B
:1001300073220008030900087322000873220008D4
:10014000732200087322000873220008732200083B
:100150007322000873220008732200084708000871
:10016000732200087322000873220008732200081B
:10017000732200087322000873220008732200080B
:10018000732200087322000800F002F800F06EF8F5
:100190000AA090E8000C82448344AAF10107DA45E2
:1001A00001D100F063F8AFF2090EBAE80F0013F0C6
:1001B000010F18BFFB1A43F001031847A8220100E2
:1001C000C822010010F8013B0A4413F0030408BFE1
:1001D00010F8014B1D1108BF10F8015B641E05D01B
:1001E00010F8016B641E01F8016BF9D1002D15D0D8
:1001F00010F8014B03F00C030C2BA1EB04040ABF15
:1002000010F8013BA4EB8314A4EB032405F10103D4
:1002100014F8016B5B1E01F8016BF9D5914238BFF0
:1002200010F8013BD1D3704700230024002500269D
:10023000103A28BF78C1FBD8520728BF30C148BF49
:100240000B607047642911F0C583752911F0C283D2
:10025000632911F0CC85732911F0D18500207047F6
:100260001FB511F017FE1FBD10B510BD11F0E2FD56
:100270001146FFF7F5FF00F065F811F000FE03B43A
:10028000FFF7F2FF03BC01F0B1FA00002A4B196836
:100290000868B0E8F04F80F30988BFF36F8F4FF024
:1002A000000080F3118870470000000006480068D5
:1002B000006880F3088862B661B6BFF34F8FBFF362
:1002C0006F8F00DF00BF00BF08ED00E0DFF80C001B
:1002D000016841F470010160704700BF88ED00E0E3
:1002E000EFF30980BFF36F8F134B1A681EF0100FE6
:1002F00008BF20ED108A20E9F04F106008B44FF0DD
:100300000F0080F31188BFF34F8FBFF36F8F06F09C
:100310003AFD4FF0000080F3118808BC19680868A6
:10032000B0E8F04F1EF0100F08BFB0EC108A80F359
:100330000988BFF36F8F70476C080020EFF30580CA
:100340007047000010B5184802F08FFC4FF4407061
:1003500002F01EF9A82002F0ADF800F0BDFD00F09B
:10036000D5FD4FF4E13001F04DFA4FF4165000F096
:100370006DFE4FF4E13000F0FBFE4FF4E13000F091
:100380007FFF4FF4E13000F0AFFF01F048F901F0DA
:100390007FF901F0A1FD00F0D8F800F0ACF806F00C
:1003A00074FE002010BD0000A00D00201CB5044606
:1003B00000F046FC08F072FA6448062100239622F9
:1003C000CDE9001062A1664806F036F9654800687C
:1003D00006F080F91CBDF2B00024C822624940A892
:1003E00011F0FAFB61A011F077FA01F06EF90A2022
:1003F00002F09FF826E0601C84B222465FA140A86C
:1004000011F076FA40A811F083FB85B22A464FF42A
:10041000805140A801F0B8F940A811F079FB85B2ED
:100420002A464FF48051684601F08DF969465AA07A
:1004300011F052FA8021684611F02AFC4FF4FA704C
:1004400006F078FBD7E7002454E0601C84B25448DF
:1004500000686FEA00005349C1F88C0252480078E6
:1004600001280ED151480178514801F042FC4F4813
:1004700001784F4811F0EAFB00204B4908704B49C6
:1004800008704C48007801280DD14B494BA011F061
:1004900023FA4C480178484811F0D8FB0020454920
:1004A0000870484908704848007801280DD147492C
:1004B00042A011F011FA46480178444811F0C6FBF9
:1004C00000204149087042490870424800780128DC
:1004D0000DD1414939A011F0FFF9404801783E485B
:1004E00011F0B4FB00203B4908703C4908706420BF
:1004F00006F020FBA9E71CB507F0D1FF384807211B
:1005000000234FF4FA72CDE9001036A1AFF2C90012
:1005100006F092F83648032100234FF4FA72CDE931
:10052000001034A1AFF2511006F086F80D480421F6
:1005300000234FF47A72CDE9001033A1AFF293108B
:1005400006F07AF807F0CFFF1CBD704710020020BC
:100550005443505F434C49454E545F7461736B0084
:10056000998A000808020020A02201084543323081
:10057000BFAABBFAB3C9B9A60D0A0000454550523F
:100580004F4D20544553542048454C4C4F20676FE5
:100590006F642125640D0A003D25730D0A000000DB
:1005A0008C02404200004042230800202208002024
:1005B000FE1E002025080020C61F002025730D0AFE
:1005C00000000000240800202908002056210020F7
:1005D000280800202B0800201E2200202A080020C6
:1005E000000200206C6564305F7461736B00000072
:1005F00004020020646174615F636F6C6C656374F6
:100600005F7461736B0000004C5749505F746173F5
:100610006B00000010B540F22551D04804F006F8F8
:10062000B8B12021CD4803F0F8FFCC4803F03CFFDF
:10063000C4B2CB4801780078401CC94A1070C94840
:10064000445410460078B0F5805F02DB002011466C
:10065000087040F22441C14803F0E8FF90B140F235
:100660002441BE4804F01DF8BC480088C4B2BB4811
:1006700003F01AFFC4B21021B84803F0CEFF0120E6
:10068000B949087010BD10B540F22551B74803F0C4
:10069000CDFFB0B12021B54803F0BFFFB34803F050
:1006A00003FFC4B2B24801780078401CB04A107011
:1006B000B048445410460078C82802DB0020114698
:1006C000087040F22441A94803F0B0FF90B140F215
:1006D0002441A64803F0E5FFA4480088C4B2A3481B
:1006E00003F0E2FEC4B21021A04803F096FF0120FF
:1006F000A149087010BD10B540F225519F4803F084
:1007000095FFB0B120219D4803F087FF9B4803F07F
:10071000CBFEC4B29A4801780078401C984A107009
:100720009848445410460078C82802DB002011463F
:10073000087040F22441914803F078FF90B140F2F4
:1007400024418E4803F0ADFF8C480088C4B28B482A
:1007500003F0AAFEC4B21021884803F05EFF012016
:100760008949087010BD10B540F22551874803F043
:100770005DFFB0B12021854803F04FFF834803F0AF
:1007800093FEC4B2824801780078401C804A107001
:100790008048445410460078C82802DB00201146E7
:1007A000087040F22441794803F040FF90B140F2D4
:1007B0002441764803F075FF74480088C4B273483A
:1007C00003F072FEC4B21021704803F026FF01202E
:1007D0007149087010BD10B540F225516F4803F003
:1007E00025FFB0B120216D4803F017FF6B4803F0DF
:1007F0005BFEC4B26A4801780078401C684A1070F9
:100800006848445410460078C82802DB002011468E
:10081000087040F22441614803F008FF90B140F2B3
:1008200024415E4803F03DFF5C480088C4B25B4849
:1008300003F03AFEC4B21021584803F0EEFE012046
:100840005949087010BD10B540F22551574803F0C2
:10085000EDFEB0B12021554803F0DFFE534803F010
:1008600023FEC4B2524801780078401C504A1070F0
:100870005048445410460078C82802DB0020114636
:10088000087040F22441494803F0D0FE90B140F294
:100890002441464803F005FF44480088C4B2434859
:1008A00003F002FEC4B21021404803F0B6FE01205E
:1008B0004149087010BD704700BFFEE700BFFEE76A
:1008C00000BFFEE700BFFEE7704708B500200090BC
:1008D000012001F043FF20B169463848006805F067
:1008E0009FFB012001F045FF009848B1009838B106
:1008F0004FF0805032490860BFF34F8FBFF36F8FC6
:1009000008BD08B500200090402004F02EFD01280D
:1009100007D169462B48006805F082FB402004F0AF
:1009200053FD012004F021FD012801D10020009099
:10093000042004F01AFD012801D1002000904FF49A
:10094000803004F041FD009838B14FF080501C49D0
:100950000860BFF34F8FBFF36F8F08BD00100140D9
:1009600020080020FE0E0020210800200044004046
:1009700022080020FE1E002023080020004800401E
:1009800024080020C61F002025080020004C00403D
:10099000260800208E20002027080020005000405C
:1009A00028080020562100202908002000140140BA
:1009B0002A0800201E2200202B0800201C060020F0
:1009C00004ED00E0940D00200446254600BF0023FE
:1009D00064221946FD48006805F082F90128F6D125
:1009E000A8B2122103F000FF10F4005FEFD0A8B20C
:1009F000102103F0F9FE10F0010F03D0F4480BF0C2
:100A0000D6FAE4E7F2480BF0FAFAE0E710B5012174
:100A10004FF0606002F0FAF903F052FE04F094FC2B
:100A200000BF04F098FC0128FBD0EA4803F053FE15
:100A30000120E84908600020C8614FF40070886216
:100A40000020C86288634864C864086548654FF43C
:100A5000806048620020C1F880004FF00070C1F84B
:100A600084000011C1F88C000020C1F89400C1F886
:100A700098000420C1F8A000C005C1F8A4004012ED
:100A8000C1F8A8008001C1F8AC004012C1F8B00064
:100A90004000C1F8B8000121CE4803F0D6FECE498F
:100AA00008600121CD4804F078FC10BD08B53D2058
:100AB0008DF8000000208DF801008DF80200012063
:100AC0008DF80300684601F068FD08BD10B50020F0
:100AD000C34908604FF0320001F02BFD0120C149ED
:100AE000C1F8B00210BD1CB50121084602F08EF914
:100AF0000121042002F08AF90121402002F086F948
:100B00000121202002F082F90121880302F0D8F9A6
:100B1000012002F03FFD03208DF8050002208DF832
:100B2000040000208DF806008DF8070002200090D8
:100B30006946AD4801F0ACFE0B220121AA4801F044
:100B400032FF042000906946A74801F0A1FE0B2265
:100B50000221A54801F027FF802000906946A248A5
:100B600001F096FE0B2207219F4801F01CFF022096
:100B7000009069469D4801F08BFE0B2201219B48A5
:100B800001F011FF022000906946984801F080FEB4
:100B90000B220121954801F006FF102000906946C4
:100BA000924801F075FE0B220421904801F0FBFEF3
:100BB0002020009069468D4801F06AFE0B22052135
:100BC0008A4801F0F0FE4FF40060009069468848C2
:100BD00001F05EFE0B221146854801F0E4FE4FF461
:100BE000005000906946824801F052FE0B220D2110
:100BF0007F4801F0D8FE4FF48040009069467C4861
:100C000001F046FE0B220E21794801F0CCFE4FF494
:100C10008050009001208DF8040000208DF806001F
:100C200003208DF8050001208DF807006946714802
:100C300001F02EFE01206A490860FFF747FF1CBD46
:100C40001CB5FFF750FFFFF731FFFFF7DFFE102164
:100C5000012003F0C9FD10F0010F05D05E480068C7
:100C600040F010005C4908605848006880B90322D1
:100C70000021012004F0F5FD544908600846006891
:100C800030B100231A4619465048006804F0E4FECB
:100C90000020032101231A02CDE9001056A1AFF272
:100CA000D72005F0C9FC1CBD70B5054600241121F4
:100CB000284603F099FD044644F00304224611211E
:100CC000284603F061FD08B9002070BD12212846B6
:100CD00003F08AFD044644F02004224612212846EF
:100CE00003F052FD08B90020EFE70120EDE700B561
:100CF00085B00121022002F089F80121880302F069
:100D0000DFF800208DF810008DF81300012003900B
:100D100003A93B4801F0BCFD0021012002F019FCB1
:100D20000120019000208DF808000C208DF80900AA
:100D300001208DF80A0001A801F0AAFC06208DF818
:100D400000000E208DF8010000208DF80200012027
:100D50008DF80300684601F020FC05B000BD70B5B9
:100D600086B0064600200590019096F83100C0F349
:100D7000001000287DD017480068002862D00020AD
:100D800005904FF480520021012003F0FDFC00BFCC
:100D90000598401C05900121084603F025FD10F040
:100DA000200F03D1174905988842F1D30020059000
:100DB0001021012003F018FD044614F0040F23D085
:100DC0004FF400600349086221E000001C06002087
:100DD00028D50020B00D002018060020400001009A
:100DE000B0824242008042420000024000080240BD
:100DF0000018024000140240455F6C696E6B0000F1
:100E000000040240FFFF040000202F49086214F094
:100E1000020F03D000202C49486103E04FF48040CA
:100E20002949486129480568274840692649096ACF
:100E30000843054325480560012001F07AFB23485B
:100E40000568056003F0F5FE2148407B0106204857
:100E5000007B41EA00411E48C07A41EA00201C495B
:100E6000897A084304901A48407C01061848007C9F
:100E700000E022E041EA00411548C07B41EA002041
:100E80001349897B084303901148407D01061048AF
:100E9000007D41EA00410E48C07C41EA00200C4937
:100EA000897C0843029002AB03AA04A909480AF00E
:100EB000A0FF08480BF060F804E003F0CAFE054804
:100EC0000AF0F2FF06B070BDB00D002000800240B5
:100ED00030DD002028D500201CB50121084601F096
:100EE00095FF0820009001208DF8040000208DF867
:100EF00006008DF8050001208DF8070069460248BC
:100F000001F0C6FC1CBD0000000002401CB5012120
:100F1000102001F07BFF4FF47C40009001208DF801
:100F2000040000208DF806008DF805008DF80700FC
:100F300069463E4801F0ACFC1CBD04281AD006DC12
:100F400001280BD002280DD003282FD10EE0052850
:100F500014D0062816D0FF2828D117E00121344AE2
:100F6000116024E00121334A116020E00121324A5E
:100F700011601CE00121314A116018E00121304A62
:100F8000116014E001212F4A116010E00121284A6C
:100F900011602D4AC2F8AC12274A1160274A11602D
:100FA000274A1160284AC2F8BC1200E000BF00BF07
:100FB000704704281AD006DC01280BD002280DD077
:100FC00003282FD10EE0052814D0062816D0FF28BC
:100FD00028D117E00021164A116024E00021154AAB
:100FE000116020E00021144A11601CE00021134A26
:100FF000116018E00021124A116014E00021114A2A
:10100000116010E000210A4A11600F4AC2F8AC12C8
:10101000094A1160094A1160094A11600A4AC2F876
:10102000BC1200E000BF00BF70470000001002408B
:10103000A8024242AC024242B0024242B4024242E0
:10104000B8024242BC024242000042421CB5044681
:101050000121082001F0DAFE1020009001208DF817
:10106000040000208DF806008DF8050001208DF8A1
:10107000070069463B4801F00BFC01203A49086033
:10108000204600F031FC1CBD30B502460020002394
:1010900000BF05E012F8015B2C18E0B25C1CE3B263
:1010A0008B42F7DB30BD30B502460020002300BF85
:1010B00004E012F8014B60405C1CE3B28B42F8DBA9
:1010C00030BDFEB506460F46144600257920274957
:1010D0000870084644805820087108464671007818
:1010E0008DF80000084680788DF801000846408899
:1010F00000128DF80200084600798DF803000846BA
:1011000040798DF8040000BF05E0795D681D0DF899
:101110000010681C85B2A542F7DB201DC1B20DF19D
:101120000100FFF7B1FF114981F88600201DC1B20F
:101130000DF10100FFF7B7FF0C4981F88700084661
:1011400090F88610601D0DF80010084890F8861081
:10115000A01D0DF80010E01DC1B2684600F0DFFDD3
:10116000FEBD0000000C0240908241426C0E002047
:101170001CB504460121482001F048FE08200090DB
:1011800001208DF8040000208DF806008DF8050080
:1011900001208DF8070069462F4801F079FB4FF4D4
:1011A0000050009001208DF8040000208DF806000A
:1011B0008DF8050001208DF807006946274801F0E9
:1011C00067FB0020264908604FF001002549C1F85F
:1011D000B402204600F0E8FB1CBD2DE9F0410546B5
:1011E0000E461446284610F093FCC7B239462846EE
:1011F00000F0ABFD24E01C48007860281DD131468A
:101200001A4810F023FC48B180201749087017498C
:1012100017A010F061FB0020BDE8F08116A1134873
:1012200010F014FC48B188200F4908700F4910A035
:1012300010F052FB4FF0FF30EEE70A2001F079F991
:101240002000A4F101018CB2D5D188200649087094
:101250004FF0FF30E0E7000000180240000C0240B1
:101260008C0243420080414225080020C61F002016
:1012700025730D0A000000004552524F5200000035
:101280001CB504460121082001F0C0FD4FF40040C8
:10129000009001208DF8040000208DF806008DF8E4
:1012A000050001208DF8070069460C4801F0F0FAAE
:1012B00000200B490860204600F038FC1CBD70B5CA
:1012C00004460D460120064908602946204600F0E4
:1012D00068FD00200349C1F8BC0270BD000C02404B
:1012E000BC824142008041421CB5044601210420D9
:1012F00001F08CFD4FF48070009001208DF8040007
:1013000000208DF806008DF8050001208DF80700FB
:101310006946464801F0BCFA012000908DF80400AF
:1013200000208DF806008DF8050001208DF80700DB
:1013300069463E4801F0ACFA0420009000208DF888
:1013400004008DF806008DF805008DF80700694649
:10135000364801F09DFA0820009000208DF8040026
:101360008DF806008DF805008DF8070069462F48B6
:1013700001F08EFA00202E4908602E49C1F8800243
:10138000204600F056FC1CBD10B50024642001F07E
:10139000D0F80120264908604FF4167001F0C9F812
:1013A00000202449C1F8A00204E0601CC4B26420FB
:1013B00001F0BFF82048006808B1502CF5DD214647
:1013C0001EA010F089FA1C480068C0B210BD10B50C
:1013D00000240020164908604FF0320001F0A9F8FF
:1013E00001201449C1F8A0024FF4487001F0A1F89F
:1013F00000200F49086005E0601CC4B24FF47A7009
:1014000001F097F80C48006808B9282CF4DD0A4868
:10141000006808B9012010BD0020FCE770B5044643
:101420000D462946204600F0D2FC70BD000802405F
:10143000A00241420000414208024142636E743DF5
:1014400025640D0A0000000070B50446002500F078
:101450008EFD642000F03AFE00F0BBFD204600F057
:1014600035FE00F0B6FD00F082FD652000F02EFE96
:1014700000F0AFFD012000F001FE054600F090FDF8
:10148000284670BD70B505460C4600F070FD64201E
:1014900000F01CFE00F09DFD284600F017FE00F055
:1014A00098FD204600F012FE00F093FD00F078FD5C
:1014B00070BD10B50146002200200A2391FBF3F312
:1014C000DAB21307180E0A2391FBF3F403FB14138B
:1014D000DAB2104310BD0146002001F00F020B09E3
:1014E00003EB830302EB4302D0B270472DE9F047D0
:1014F00006460F4614461D46DDE9099ADDF82080B0
:101500003046FFF7D6FF06463846FFF7D2FF0746BC
:101510002046FFF7CEFF04462846FFF7CAFF0546E0
:101520004046FFF7C6FF80464846FFF7C2FF8146A8
:10153000012000FA0AF000F0FF0A31461620FFF7FA
:10154000A1FF39461520FFF79DFF21461420FFF724
:1015500099FF29461220FFF795FF41461120FFF71A
:1015600091FF49461020FFF78DFF51461320FFF7EA
:1015700089FFBDE8F0872DE9F05F00260027B0461F
:10158000B146B246B346002400251620FFF75CFFA3
:1015900006461520FFF758FF07461420FFF754FFB3
:1015A00080461220FFF750FF81461120FFF74CFFC5
:1015B00082461020FFF748FF83461320FFF744FFC1
:1015C00004463046FFF787FF304988803846FFF7EA
:1015D00082FF2E4988714046FFF77DFF2B49C87175
:1015E0004846FFF778FF294908705046FFF773FF18
:1015F000264948705846FFF76EFF2449887006E078
:10160000204604EBD071C1F34704681CC5B2002C1E
:10161000F6D1681E1D4908720020BDE8F09F0EB586
:1016200000F05EFC2020FFF70FFF58211720FFF786
:1016300029FF00213020FFF725FF18213120FFF777
:1016400021FF00213220FFF71DFF04211D20FFF79D
:1016500019FF00211D20FFF715FF02211F20FFF7B2
:1016600011FF03201C2119221023CDE90021029033
:101670001F2207211320FFF739FF00211E20FFF74B
:1016800001FF00211F20FFF7FDFE0EBDF40E00201C
:101690001CB50121022001F0B9FB4FF480500090ED
:1016A00001208DF8040000208DF806008DF805005B
:1016B00001208DF807006946494801F0E9F801204A
:1016C0004849086000F055FD1CBD10B50020454993
:1016D00008604FF0060000F02DFD10BD10B5002091
:1016E000404908604FF0040000F024FD10BD10B523
:1016F000044600203B4908604FF0010000F01AFD4D
:10170000204600F017FD01203749C1F8B00210BD96
:1017100010B500240020334908604FF0050000F0A8
:1017200009FDFF2000F006FD044601202E49C1F806
:10173000B002204610BD10B500BFFFF7E9FF10F062
:10174000010FFAD110BD2DE9F04106460C461746AF
:101750000020244908604FF0030000F0EBFC201249
:1017600000F0E8FCE0B200F0E5FC002505E0FF2019
:1017700000F0E0FC7055681C85B2BD42F7DB01202B
:1017800018490860BDE8F0812DE9F04104460D4696
:101790001646002013490860FFF797FF0120124901
:1017A000C1F8B00200200F4908604FF0020000F0BD
:1017B000C1FC281200F0BEFCE8B200F0BBFC002720
:1017C00005E014F8010B00F0B5FC781C87B2B742B5
:1017D000F7DB012003490860FFF7ADFFBDE8F081AA
:1017E00000040240B08240420080404200BF704787
:1017F00000BFFE4A128812F0400FFAD0C2B2FB4B73
:101800009A80704710B588B004460021F74802F06E
:101810001CFE25208DF8040007208DF8050000200F
:101820008DF8060001208DF8070001A800F0B5FE34
:101830000121084601F0EAFA0121102001F040FBE5
:1018400007220921EA4801F0AEF807220A21E848F8
:1018500001F0A9F84FF40070069002208DF81D00E9
:101860008DF81C0000208DF81E0001208DF81F004F
:1018700006A9DF4801F00CF84FF4806006900220C2
:101880008DF81C0006A9DA4801F002F802A802F05F
:10189000BAFD02940020ADF80C00ADF80E00ADF8D2
:1018A0001000ADF814000C20ADF8120002A9CF48CA
:1018B00002F043FD012240F22551CC4802F07BFEAC
:1018C000012240F22441C94802F075FE0121C748B7
:1018D00002F0BBFD4021C54802F09FFE8021C348B5
:1018E00002F09BFE08B010BD10B588B0044601217F
:1018F000082001F08BFA0121480401F0D0FA0722F8
:101900000521BC4801F04FF807220621B94801F033
:101910004AF86020069002208DF81C008DF81D000A
:1019200000208DF81E0001208DF81F0006A9B14887
:1019300000F0AEFF02940020ADF80C00ADF80E00F0
:10194000ADF81000ADF814000C20ADF8120002A99B
:10195000A94802F0F2FC0121A74802F076FD4021DF
:10196000A54802F05AFE8021A34802F056FE01224B
:1019700040F22551A04802F01EFE012240F224410F
:101980009D4802F018FE26208DF8040008208DF8EE
:10199000050000208DF8060001208DF8070001A841
:1019A00000F0FBFD08B010BD10B588B00446012161
:1019B000082001F02BFA0121880401F070FA0722B7
:1019C00008218C4800F0EFFF07220921894800F028
:1019D000EAFF4FF44070069002208DF81C008DF84D
:1019E0001D0000208DF81E0001208DF81F0006A9A3
:1019F000804800F04DFF02940020ADF80C00ADF8D7
:101A00000E00ADF81000ADF814000C20ADF8120077
:101A100002A97A4802F091FC0121784802F015FDF4
:101A20004021764802F0F9FD8021744802F0F5FD6E
:101A3000012240F22551714802F0BDFD012240F221
:101A400024416E4802F0B7FD27208DF804000620DF
:101A50008DF8050000208DF8060001208DF80700A4
:101A600001A800F09AFD08B010BD10B588B004467A
:101A70000121042001F0CAF90121C80401F00FFA84
:101A800008220A215E4800F08EFF08220B215C48E4
:101A900000F089FF4FF44060069002208DF81C0092
:101AA0008DF81D0000208DF81E0001208DF81F000C
:101AB00006A9534800F0ECFE02940020ADF80C009B
:101AC000ADF80E00ADF81000ADF814000C20ADF824
:101AD000120002A94B4802F030FC0121494802F0F3
:101AE000B4FC4021474802F098FD8021454802F0AF
:101AF00094FD012240F22551424802F05CFD012292
:101B000040F224413F4802F056FD34208DF8040095
:101B100004208DF8050000208DF8060001208DF8C6
:101B2000070001A800F039FD08B010BD10B588B05D
:101B3000044601210C2001F069F90121080501F09A
:101B4000AEF908220C212E4800F02DFF08220221B8
:101B5000284800F028FF41F20400069002208DF88A
:101B60001C008DF81D0000208DF81E0001208DF84E
:101B70001F0006A9224800F08BFE042006900220D8
:101B80008DF81C008DF81D0000208DF81E0001202E
:101B90008DF81F0006A9174800F07AFE0294002075
:101BA000ADF80C00ADF80E00ADF81000ADF8140063
:101BB0000C20ADF8120002A9134802F0BEFB01216F
:101BC000114802F042FC40210F4802F026FD80211E
:101BD0000D4802F022FD012240F225510A4802F090
:101BE000EAFC012240F2244107480FE000100140C6
:101BF00000000240000C0240004400400048004049
:101C000000080240004C00400050004002F0D3FCAD
:101C100035208DF8040006208DF8050000208DF891
:101C2000060001208DF8070001A800F0B6FC08B0FE
:101C300010BD10B588B004460121042001F0E6F87B
:101C40000121202001F03CF908220621904800F0F3
:101C5000AAFE082207218E4800F0A5FEC0200690AB
:101C600002208DF81C008DF81D0000208DF81E004C
:101C700001208DF81F0006A9854800F009FE029496
:101C80000020ADF80C00ADF80E00ADF81000ADF876
:101C900014000C20ADF8120002A97E4802F04DFBA2
:101CA00001217C4802F0D1FB40217A4802F0B5FCCA
:101CB0008021784802F0B1FC012240F2255175489C
:101CC00002F079FC012240F22441724802F073FCD8
:101CD00047208DF8040006208DF8050000208DF8BF
:101CE000060001208DF8070001A800F056FC08B09E
:101CF00010BD70B504460D460BE014F8011B664894
:101D000002F0CEFB00BF4021634802F079FC0028BE
:101D1000F9D02800A5F10101CDB2EED170BD70B5AA
:101D200004460D460BE014F8011B5C4802F0B8FBBA
:101D300000BF4021594802F063FC0028F9D0280078
:101D4000A5F10101CDB2EED170BD70B504460D46CE
:101D50000BE014F8011B524802F0A2FB00BF402127
:101D60004F4802F04DFC0028F9D02800A5F10101F0
:101D7000CDB2EED170BD70B504460D460BE014F83F
:101D8000011B484802F08CFB00BF4021454802F08F
:101D900037FC0028F9D02800A5F10101CDB2EED121
:101DA00070BD70B504460D460BE014F8011B3E48AB
:101DB00002F076FB00BF40213B4802F021FC0028E6
:101DC000F9D02800A5F10101CDB2EED170BD70B5FA
:101DD00004460D460BE014F8011B2E4802F060FB90
:101DE00000BF40212B4802F00BFC0028F9D028004E
:101DF000A5F10101CDB2EED170BD1FB504461C2086
:101E00008DF8000008208DF8010000208DF80200F8
:101E100001208DF80300684600F0BFFB0121084651
:101E200001F03DF842F2CF000290601E80B2ADF8A2
:101E300004000020ADF80C00ADF8060001A94FF039
:101E4000804001F06EFC01221146900702F00AF971
:101E50000121880701F0EEFC1FBD10B501218807A4
:101E600002F017F998B10121880702F023F90F4811
:101E700001880088401C0D4A1080642907DB00207F
:101E8000114608800A480068401C0949086010BDD6
:101E900000080240001401400010014000440040CE
:101EA00000480040004C0040005000402C0800203A
:101EB0001404002070B505460C4645F2555000F05C
:101EC000ABFD284600F0ABFD204600F0ABFD00F076
:101ED000ACFD00F0AFFD70BD10B500F0A6FD10BD6B
:101EE0001CB50121022000F091FF4FF440700090DA
:101EF00001208DF8040000208DF806008DF8050003
:101F000001208DF807006946854800F0C1FC0120DA
:101F1000844908608449C1F8A4021CBD1CB54FF473
:101F20000070009001208DF8040000208DF806005C
:101F300002208DF8050001208DF8070069467848D9
:101F400000F0A6FC1CBD1CB54FF4007000900020F2
:101F50008DF804008DF8060002208DF805000020A1
:101F60008DF8070069466E4800F092FC1CBD10B564
:101F7000FFF7D4FF01206B4908606B49C1F8A40248
:101F80004FF00A0000F0B3FA0020684908604FF0F3
:101F90000A0000F0ACFA00206349C1F8A00210BDAD
:101FA00010B500205F490860FFF7B8FF00205E49C8
:101FB000C1F8A4020A2000F09AFA012059490860E9
:101FC0004FF00A0000F093FA01205749C1F8A4022B
:101FD00010BD10B500240020524908604FF00A00DF
:101FE00000F085FAFFF7AFFF01204F49C1F8A002CA
:101FF0000A2000F07CFA01204C4908604FF00A00EA
:1020000000F075FA07E0601CC4B2C82C03DDFFF7CE
:10201000C7FF012010BD464800680128F3D000200A
:102020004049086000BFF5E710B5FFF777FF0120D2
:102030003C4908604FF00A0000F059FA00203A4984
:10204000C1F8A4020A2000F052FA002035490860C5
:1020500010BD10B5FFF762FF0120324908604FF054
:102060000A0000F044FA01202F49C1F8A4020A2016
:1020700000F03DFA00202B49086010BD70B5054600
:102080000024FFF760FF002616E0002025490860C5
:102090004FF00A0000F02BFA01202349C1F8A002FA
:1020A0006006040E22480068012802D1601CC4B2F8
:1020B00000E0E4B2701CC6B2082EE6DB15B1FFF7F3
:1020C000B3FF01E0FFF7C5FF204670BD70B50446C1
:1020D000FFF724FF002520E00020124908604FF0A0
:1020E0000A0000F004FA04F08000802803D10120E7
:1020F0000E49086002E000200C4908604FF00A0019
:1021000000F0F5F90120074908604FF00A0000F0DF
:10211000EEF96006040E681CC5B2082DDCDB70BD4C
:1021200000040240A082404200804042A48240421B
:102130002482404270B50446002501E0681CC5B207
:102140000221434801F0C4F90028F7D000252146B8
:102150003F4801F074F901E0681CC5B201213C4818
:1021600001F0B6F90028F7D0394801F065F9C0B29E
:1021700070BD00B587B00121022000F047FE0121AB
:10218000880300F08CFE4FF46040059002208DF82B
:10219000180000208DF81A0003208DF81900012086
:1021A0008DF81B0005A92B4800F072FB05220D21BC
:1021B000284800F0F8FB05220E21264800F0F3FB2A
:1021C00005220F21234800F0EEFB0121880300F0D7
:1021D000BBFE00214FF4804000F0B6FE0020ADF8B9
:1021E00000004FF48270ADF802000020ADF804004A
:1021F000ADF80600ADF808004FF40070ADF80A0025
:102200003820ADF80C000020ADF80E000720ADF826
:10221000100069460E4800F099FF01210C4801F0BA
:102220008DF8FF20FFF786FF07B000BD10B504460C
:10223000074800884FF6C7710840054908800846DE
:102240000088204308800121014801F077F810BD83
:102250000038004000040240094880470948004710
:10226000FEE7FEE7FEE7FEE7FEE7FEE7FEE7FEE746
:10227000FEE7FEE704480549054A064B70470000A3
:102280007323000889010008682D0120683F0120A0
:10229000682F0120682F01200CB5002001900090CC
:1022A0007548006840F480307349086000BF724888
:1022B000006800F4003000900198401C01900098E4
:1022C00018B90198B0F5A04FF1D16B48006810F42F
:1022D000003F02D00120009001E000200090009813
:1022E000012845D164484030006840F08050624980
:1022F000403108606148006840F440405F49086030
:102300005D48083000685C4908310860084600688C
:1023100040F4004008600846006840F4A05008609F
:102320005748091F0860081F006840F08070091FA7
:10233000086000BF5048006810F0007FFAD040F2FB
:102340000570504908604C480830006820F00300D0
:102350004949083108600846006840F002000860FA
:1023600000BF45480830006800F00C000828F8D18C
:102370000CBD10B54448006840F470004249086044
:102380003D48006840F001003B49086000203A49A0
:1023900008310860384800683C4908403649086000
:1023A0003B48091D0860081F006820F48020091FB1
:1023B0000860002030490C310860FFF76DFF4FF0D6
:1023C000006031498039086010BD70B500200022DE
:1023D000022300240221284D08352D6805F00C0049
:1023E00020B1042806D0082834D107E0294D2A4E10
:1023F000356033E0294D284E35602FE01E4D2D1DF0
:102400002D68C5F380541C4D2D1D2D6805F03F012E
:1024100054B1224DB5FBF1F5174E361D3668C6F3A3
:10242000881605FB06F209E01A4DB5FBF1F5124ED0
:10243000361D3668C6F3881605FB06F20E4D2D1DB7
:102440002D68C5F301456D1C6B00B2FBF3F5124E10
:10245000356003E00F4D104E356000BF00BF064DE4
:1024600008352D68C5F303150D4E705D0A4D2D68B6
:10247000C540094E356070BD003802400070004014
:1024800008544007003C024088ED00E0FFFFF6FEE4
:10249000103000240024F4003408002000127A00D8
:1024A0003808002010B505F0A2F8012801D006F088
:1024B00032F810BD70B50446042000F0BCF8324874
:1024C000047025464FF47A70454301202F49088057
:1024D0004FF0E020006940F002004FF0E021086179
:1024E00008464561006940F00100086170BD70B5A3
:1024F000034600224FF0E0267569234E367803FB31
:1025000006F44FF0E026B16910E04FF0E026B06924
:1025100088420BD0884202D20E1A324402E02E1AB0
:102520000E4432440146A24200D300E0EDE700BF72
:1025300070BD70B5044605F05AF8012810D0134854
:102540000088844206D311480088B4FBF0F5284681
:1025500004F0F0FA0D480088B4FBF0F100FB1144E0
:102560004FF47A7104FB01F0FFF7C1FF70BD30B585
:102570000446002504E04FF47A70FFF7B8FF6D1CA5
:10258000A542F8D330BD0000480800204A080020CA
:1025900033490143334A1160704770B5002100236D
:1025A0000F22C47824B32F4C246804F4E064C4F5EB
:1025B000E064C4F30721C1F10404E3B20A414478A2
:1025C0009C40E1B28478144021430C07210E264C34
:1025D00005786155047804F01F050124AC400578A6
:1025E0006D114FF0E02606EB8505C5F8004109E0C6
:1025F000047804F01F040125A5401C4C06787611D0
:1026000044F8265070BD1A4A0A400243154B1B1F5E
:102610001A60704739B1134A121D12680243114BF8
:102620001B1D1A6006E00F4A121D126882430D4BF3
:102630001B1D1A607047042808D14FF0E02109697A
:1026400041F004014FF0E022116107E04FF0E0217A
:10265000096921F004014FF0E02211617047000088
:102660000000FA050CED00E000E400E080E100E08D
:1026700080FFFF1F002041490860091D0860091DF7
:102680000860091D08603E483C49143108607047E5
:1026900000213A498279002A3AD00A461268036832
:1026A0009A430B461A600A1D126803689A430B1D71
:1026B0001A60027911440A6803681A430A602F4AB3
:1026C0000832126803689A432C4B08331A601A1DAB
:1026D000126803689A43294B0C331A604279102A16
:1026E0000ED11A1F126803681A43244B08331A606C
:1026F0001A1D126803681A43204B0C331A600DE050
:102700001E49427911440A6803681A430A6005E0C9
:10271000027911440A6803689A430A6070470021ED
:10272000016001710C2141710021817170471349D1
:10273000103109680143114A103211607047014697
:1027400000200E4A143212680A4201D0012000E033
:102750000020704709491431086070470146002085
:10276000064A143212680A4201D0012000E000201B
:10277000704702491431086070470000003C014076
:10278000FFFF7F0010B504469848844208D101211C
:10279000084600F0A6FB0021012000F0A2FB76E035
:1027A0009348844208D10121022000F09AFB0021C5
:1027B000022000F096FB6AE08E48844208D1012195
:1027C000042000F08EFB0021042000F08AFB5EE074
:1027D0008948844208D10121082000F082FB0021B1
:1027E000082000F07EFB52E08448844208D1012199
:1027F000102000F076FB0021102000F072FB46E074
:102800007F48844208D10121202000F06AFB00218A
:10281000202000F066FB3AE07A48844208D101218A
:10282000402000F05EFB0021402000F05AFB2EE02B
:102830007548844208D10121802000F052FB00211C
:10284000802000F04EFB22E07048844208D1012134
:10285000801500F046FB0021A01500F042FB16E0B9
:102860006B48844208D10121401500F03AFB002159
:10287000601500F036FB0AE06648844207D101216A
:10288000001500F02EFB0021201500F02AFB10BDE2
:10289000F0B50A4600210023002400BF3DE00125D9
:1028A00005FA01F3156805EA03049C4234D1056872
:1028B0004F000326BE40B543056015794E00B54074
:1028C0000668354305601579012D02D01579022D72
:1028D00016D185684F000326BE40B5438560557903
:1028E0004E00B540866835438560456801268E40B8
:1028F000B5434560456896798E40B6B2354345602C
:10290000C5684F000326BE40B543C560D5794E006B
:10291000B540C6683543C560491C1029BFD3F0BD1A
:102920004FF6FF7101600021017141718171C17128
:10293000704708B54FF480320092009A0A43009223
:10294000009AC261C161009AC261C2690092C26903
:10295000009208BD0246002013690B4201D00120FD
:1029600000E0002070470146086980B270470246C7
:10297000002053690B4201D0012000E00020704785
:102980000146486980B270470183704741837047B0
:102990000AB1018300E04183704741617047426999
:1029A0004A4042617047F0B5002300244D07ED0E08
:1029B00002FA05F3CE1000F1200555F826504E0717
:1029C000F70E0F26BE40B543CF1000F1200646F8A3
:1029D0002750CE1000F1200555F8265045EA030493
:1029E000CE1000F1200545F82640F0BD0000024061
:1029F0000004024000080240000C024000100240A7
:102A00000014024000180240001C02400020024056
:102A100000240240002802400E49086070470D491A
:102A2000486070470B49886070474AF6AA200949F8
:102A3000086070474CF6CC40064908607047014674
:102A40000020044AD2680A4201D0012000E00020A0
:102A50007047000000300040F948006840F0010075
:102A6000F74908600020F64908310860F44800681A
:102A7000F4490840F2490860F348091D0860F3482A
:102A8000EF4984310860F0481038091D0860EC48AF
:102A9000006820F48020EA4908600020E8490C31F1
:102AA0000860E7498C31086070470021E44A921CB5
:102AB000117011460870704710B5014600220023BE
:102AC00000204A11012A02D1DD4C236808E0022AC5
:102AD00003D1DB4C7034236802E0D94C7434236892
:102AE00001F01F02012494401C4201D0012000E0AB
:102AF000002010BD38B5002000900024002500BF44
:102B00003120FFF7D9FF05460098401C009000983F
:102B1000B0F5A04F01D0002DF2D03120FFF7CCFF4F
:102B200008B1012400E00024204638BD0146002001
:102B3000C34A106820F0F80040EAC10010607047F6
:102B4000C349086070470021BD4A7032117011708E
:102B5000012802D004280AD104E00121B84A7032C9
:102B6000117005E00521B64A7032117000E000BF17
:102B700000BF7047B7490860704770B5049C41EAD0
:102B800082150126C6EB530645EA0645054345EA8C
:102B90000465AB4E361D356070BDAD4908667047A3
:102BA000820142EA0172A64B84331A607047A84939
:102BB0008866704710B5830143EA016343EA0273F4
:102BC0009F4C8834236010BDA14908677047A04915
:102BD000C864704702460020994B0833186820F0FB
:102BE000EC6042EA01031843954B083318607047C4
:102BF00002460020924B0833186820F0784042EAE1
:102C0000010318438E4B08331860704701460020BB
:102C10008B4A0832106820F00300084310607047A8
:102C200087480830006800F00C007047014600201B
:102C3000834A0832106820F0F000084310607047A3
:102C4000014600207E4A0832106820F4E050084314
:102C50001060704701460020794A0832106820F45D
:102C6000604040EAC10010607047F0B500210022CA
:102C70000024022500260223714F08373F6807F021
:102C80000C0121B1042905D0082937D105E0724F84
:102C9000076036E0714F076033E0694F3F1D3F68C2
:102CA000C7F38056664F3F1D3F6807F03F036EB184
:102CB0006A4FB7FBF3F7DFF888C10CF1040CDCF8BE
:102CC00000C0CCF3881C07FB0CF40CE0624FB7FB90
:102CD000F3F7DFF86CC10CF1040CDCF800C0CCF3A6
:102CE000881C07FB0CF4564F3F1D3F68C7F3014794
:102CF0007F1C7D00B4FBF5F7076002E0564F0760CC
:102D000000BF00BF4E4F08373F6807F0F0010909C8
:102D1000534F7A5C0768D7404760494F08373F6890
:102D200007F4E051890A4E4F7A5C4768D7408760C4
:102D3000434F08373F6807F46041490B484F7A5CBE
:102D40004768D740C760F0BD002100F44072B2F57B
:102D5000407F0AD13A4A0832116821F4F811414AF9
:102D600002401143364A08321160354A7032126807
:102D7000C0F30B031A43324B70331A607047354966
:102D80004439086070473349403908607047364914
:102D90000860704701460020294A8C32106820F0F4
:102DA0001F004A1E1043264A8C32106070470146AD
:102DB0000020234A8C32106820F4F8504A1E40EA62
:102DC00002201F4A8C3210607047014600201C4AC6
:102DD0008C32106820F440100843106070470146A0
:102DE0000020174A8C32106820F44000084310601D
:102DF000704701460020124A8C32106820F440309F
:102E000008431060704719490860704739B10C4A8F
:102E10003032126802430A4B30331A6006E0084A27
:102E2000303212688243064B30331A607047F9B172
:102E3000034A343212680243014B34331A601CE0F7
:102E400000380240FFFFF6EA103000240030002076
:102E500000004742800E47420024F40000127A002E
:102E60004C080020FFFCFF0F5C014742E011474285
:102E70008F4A126882438E4B1A60704739B18C4A70
:102E8000121D126802438A4B1B1D1A6006E0884A15
:102E9000121D12688243864B1B1D1A60704739B1A0
:102EA000834A0C3212680243814B0C331A6006E0ED
:102EB0007F4A0C32126882437D4B0C331A60704794
:102EC00039B17B4A103212680243794B10331A60D1
:102ED00006E0774A103212688243754B10331A604D
:102EE000704739B1724A243A12680243704B243B4E
:102EF0001A6006E06E4A243A126882436C4B243B07
:102F00001A60704739B16A4A203A12680243684B26
:102F1000203B1A6006E0664A203A12688243644BFE
:102F2000203B1A60704739B1614A1C3A126802436B
:102F30005F4B1C3B1A6006E05D4A1C3A12688243F4
:102F40005B4B1C3B1A60704739B1594A143A1268FE
:102F50000243574B143B1A6006E0554A143A126874
:102F60008243534B143B1A60704739B1504A103AB0
:102F7000126802434E4B103B1A6006E04C4A103A6E
:102F8000126882434A4B103B1A60704739B1484A75
:102F90001C3212680243464B1C331A6006E0444A56
:102FA0001C3212688243424B1C331A60704739B19D
:102FB0003F4A2032126802433D4B20331A6006E03C
:102FC0003B4A203212688243394B20331A607047E3
:102FD00039B1374A243212680243354B24331A6020
:102FE00006E0334A243212688243314B24331A609C
:102FF000704739B12E4A2C32126802432C4B2C33C5
:103000001A6006E02A4A2C3212688243284B2C337D
:103010001A60704739B1264A303212680243244B95
:1030200030331A6006E0224A303212688243204B65
:1030300030331A607047012808D11D493C310968B6
:1030400041F008011A4A3C32116007E018493C314E
:10305000096821F00801164A3C321160704739B105
:10306000134A273A12780243114B273B1A7006E0A5
:103070000F4A273A127882430D4B273B1A7070474C
:103080000B484030006840F08070094940310860CA
:10309000704701460020064A283A12680A4201D0C9
:1030A000012000E000207047014926390870704770
:1030B0003438024010B50446FA48844208D1012150
:1030C0008014FFF752FF0021A014FFF74EFF3CE0F1
:1030D000F548844208D101210014FFF735FF002193
:1030E0002014FFF731FF30E0F048844208D101217D
:1030F000C013FFF729FF0021E013FFF725FF24E0AD
:10310000EB48844208D101214014FFF72EFF002133
:103110006014FFF72AFF18E0E648844209D1012134
:103120000805FFF722FF00214FF48010FFF71DFF75
:103130000BE0E148844208D101214805FFF715FF63
:1031400000214FF40010FFF710FF10BD10B5002252
:10315000028802F441520B884C8823438C88234315
:10316000CC8823430C8923434C8923438C892343F4
:10317000CC8923431A430280838B4FF2FF74234090
:1031800083830B8A038210BD2DE9F04F00250223B3
:1031900000244FF0010900220026002794469046A3
:1031A000B0F81CA04FF2400B0AEA0B0AA0F81CA0D2
:1031B0004FF0020AA0F820A0858BD1F808A0BAF140
:1031C000020F01D100BF80E0B1F804A0BAF1000FF6
:1031D00002D14FF0010901E04FF00209DFF8DCA253
:1031E000DAF800A01AF4000F09D0DFF8D0A2DAF85C
:1031F00000A02AF4000ADFF8C4B2CBF800A0DFF880
:10320000BCA20AF17C0ADAF800A0CAF3881CDFF835
:10321000ACA20AF17C0ADAF800A0CAF30278DFF85F
:103220009CA2AAF1040ADAF800A00AF03F07DFF82E
:103230008CA2AAF1040ADAF800A00AF4800ABAF50E
:10324000800F08D1DFF878A2BAFBF7FA0AFB0CFA74
:10325000BAFBF8F607E0DFF86CA2BAFBF7FA0AFB54
:103260000CFABAFBF8F6B1F806A0BAF5007F0ED159
:103270004FEA162A0AEB8A0A4FEA4A0AD1F808B03E
:10328000BAFBFBFA0AF1050A1FFA8AF20FE04FEACD
:10329000491AB6FBFAFA0AEB8A0A4FEA4A0AD1F847
:1032A00008B0BAFBFBFA0AF1050A1FFA8AF24FF0DE
:1032B0000A0AB2FBFAF202F00104A2EB040ACAF312
:1032C0004F034FF6FF7A0AEA0424022B01DBFF2B9F
:1032D00001DD02230024B1F806A04AEA040A4AEA02
:1032E000030AA0F820A0B1F804A0B1F80CB04AEA93
:1032F0000B0AB1F802B04AEA0B0AB1F800B04AEA88
:103300000B0A4AF4006A4AEA05058583BDE8F08F96
:103310000021018041808180C180018141818181C2
:10332000C181072101827047002101804180818095
:10333000C1800221816000218181704721B1028812
:1033400042F04002028004E002884FF6BF731A4048
:103350000280704721B1828B42F48062828304E054
:10336000828B4FF6FF331A408283704702884FF2F8
:10337000FF731A40028002880A4302807047B1F549
:10338000804F04D1028842F48042028004E0028827
:103390004BF6FF731A4002807047A1F57E42FF3A58
:1033A00004D0028842F48072028004E002884FF662
:1033B000FF631A400280704721B1828842F0040204
:1033C000828004E082884FF6FB731A408280704747
:1033D00021B1828842F01002828004E082884FF698
:1033E000EF731A408280704730B500220023848B2F
:1033F0004FF240052C40848302240484828B0C8885
:10340000B4F5007F01D00C8814B94FF4807308E044
:103410000C88B4F5407F03D00C88B4F5807F00D1D0
:1034200000238C888D892C434D882C431C4344F405
:1034300000642243828330BD0146888970478181C0
:10344000704721B1028842F40052028004E00288F1
:103450004DF6FF731A4002807047018841F4805195
:103460000180704702460020012901D0108B00E046
:10347000908A70470146088A70471AB183880B43C7
:10348000838002E083888B438380704730B50024BB
:1034900000230C110125A540ABB2AAB185881D43BC
:1034A000858014E00030014000380040003C0040BE
:1034B00000340140005001400054014008380240EF
:1034C00000127A000024F40085889D43858030BD79
:1034D0000246002013890B4201D0012000E00020A9
:1034E0007047CA4302817047F0B5024600200024AD
:1034F0000023002501F00F070126BE40B4B20B11D6
:1035000001269E40B3B2968806EA03051689264234
:1035100002D00DB1012000E00020F0BD10B5002266
:1035200001F00F040123A3409AB2D343038110BDDD
:1035300010B501218803FFF718FD00214FF48040EA
:10354000FFF713FD10BD1C49086070471B49086256
:10355000704730B500228B071C0F0F2303FA04F2CB
:10356000154B08338C1053F824309343124C083415
:103570008D1044F8253023468C1053F824308C07E6
:10358000240F00FA04F423430B4C08348D1044F844
:10359000253030BD0A49086070470A490860704705
:1035A000002005492031096811F4807F01D00120F5
:1035B00000E0002070470000003801400000274272
:1035C000DC0027420004274210B50446FE4884422E
:1035D00008D101210846FFF7C8FC00210120FFF7B0
:1035E000C4FC9DE0B4F1804F08D101210846FFF7EB
:1035F000ABFC00210120FFF7A7FC91E0F3488442D7
:1036000008D101210220FFF79FFC00210220FFF7D3
:103610009BFC85E0EE48844208D101210420FFF79D
:1036200093FC00210420FFF78FFC79E0E9488442F5
:1036300008D101210820FFF787FC00210820FFF7AF
:1036400083FC6DE0E448844208D101211020FFF79B
:103650007BFC00211020FFF777FC61E0DF4884420B
:1036600008D101212020FFF76FFC00212020FFF767
:103670006BFC55E0DA48844208D101210220FFF7B3
:1036800074FC00210220FFF770FC49E0D548844219
:1036900009D101210804FFF768FC00214FF48030B4
:1036A000FFF763FC3CE0D048844209D10121480483
:1036B000FFF75BFC00214FF40030FFF756FC2FE0D2
:1036C000CA48844209D101218804FFF74EFC002139
:1036D0004FF48020FFF749FC22E0C548844208D11E
:1036E00001214020FFF730FC00214020FFF72CFC97
:1036F00016E0C048844208D101218020FFF724FC55
:1037000000218020FFF720FC0AE0BB48844207D15B
:1037100001218015FFF718FC0021A015FFF714FC0C
:1037200010BD00220288A84B98420ED0AC4B9842A4
:103730000BD0B0F1804F08D0A44B984205D0A44BD9
:10374000984202D0A34B984204D14FF68F731A408F
:103750004B881A43A04B984207D0A04B984204D004
:103760004FF6FF431A400B891A4302804B68C3622D
:103770000B880385944B984202D0994B984201D113
:103780008B7A03860123838270474FF0FF314160BB
:103790000021018001814180817270470185828210
:1037A00070470A46002101884FF68F731940114374
:1037B0000180704741627047C16270470146486AA4
:1037C00070470146088D704721B1028842F002021D
:1037D000028004E002884FF6FD731A4002807047B1
:1037E00021B1028842F00402028004E002884FF610
:1037F000FB731A400280704721B1028842F08002B8
:10380000028004E002884FF67F731A4002807047FE
:1038100002884FF6F7731A40028002880A4302803A
:10382000704702884FF6FF431A40028002880A431D
:103830000280704721B1028842F00102028004E058
:1038400002884FF6FE731A400280704770B500245C
:1038500000220023058C4FF6FE7635400584028C4D
:103860008388048B4FF68F752C40B51E2C400D8835
:103870002C43751E2A408D892A434D882A43524D78
:10388000A84202D0564DA84213D14FF6F7752A40F0
:10389000CD892A434FF6FB752A408D882A434FF67F
:1038A000FF652B404FF6FF552B400D8A2B434D8A69
:1038B0002B43838004838D684563028470BD70B59B
:1038C000002400220023058C4FF6EF763540058456
:1038D000028C8388048B48F6FF752C404FF6FF4519
:1038E0002C400D884FF6FF7606EA05252C434FF64F
:1038F000DF752A408D8906EA05152A434D8806EAB8
:1039000005152A43304DA84202D0354DA8421DD19D
:103910004FF67F752A40CD894FF6FF7606EA0515EA
:103920002A434FF6BF752A408D8806EA05152A43BB
:103930004FF6FF352B404FF2FF752B400D8A06EAFC
:1039400085052B434D8A06EA85052B438380048336
:103950008D688563028470BD70B500240022002349
:10396000058C4FF6FF6635400584028C8388848B76
:103970004FF68F752C404FF6FC752C400D882C436C
:103980004FF6FF552A408D894FF6FF7606EA05254A
:103990002A434D8806EA05252A430B4DA84202D04A
:1039A0000F4DA84238D14FF2FF752A40CD894FF60E
:1039B000FF7606EA05252A434FF6FF352A408D8813
:1039C00006EA05252A4319E00000014000040040F2
:1039D00000080040000C00400010004000140040AF
:1039E0000004014000400140004401400048014003
:1039F00000180040001C0040002000404EF6FF75FB
:103A00002B404DF6FF752B400D8A06EA05152B431A
:103A10004D8A06EA05152B43838084838D68C56330
:103A2000028470BD70B5002200230024058C4EF680
:103A3000FF7635400584038C8488828B48F6FF75B9
:103A40002A404FF6FF452A400D884FF6FF7606EADA
:103A500005252A434DF6FF752B408D8906EA05356D
:103A60002B434D8806EA05352B43FE4DA84202D074
:103A7000FD4DA84208D14BF6FF752C400D8A4FF63C
:103A8000FF7606EA85152C43848082838D68056461
:103A9000038470BD0021018041808180816081812B
:103AA000C18101824182704770B503460020002425
:103AB0001846183001258D40ACB21D8CA5431D84DD
:103AC00009B108290AD100EB610005684FF68F762D
:103AD000354005600568154305600FE00D1FC5F30F
:103AE0004E052844056848F6FF76354005600568B0
:103AF0004FF6FF7606EA02263543056070BD416346
:103B0000704781637047C1637047016470470A461C
:103B10000021018B4FF68F731940114301837047C9
:103B20000A460021018B48F6FF7319404FF6FF73D8
:103B300003EA02231943018370470A460021818B5F
:103B40004FF68F7319401143818370470A46002155
:103B5000818B48F6FF7319404FF6FF7303EA022387
:103B60001943818370470A460021018B4FF6F77392
:103B700019401143018370470A460021018B4FF21F
:103B8000FF7319404FF6FF7303EA022319430183C1
:103B900070470A460021818B4FF6F7731940114395
:103BA000818370470A460021818B4FF2FF731940D1
:103BB0004FF6FF7303EA02231943818370470A46D5
:103BC0000021018B4FF6FB731940114301837047AD
:103BD0000A460021018B4FF6FF3319404FF6FF7361
:103BE00003EA02231943018370470A460021818BAF
:103BF0004FF6FB7319401143818370470A46002139
:103C0000818B4FF6FF3319404FF6FF7303EA02230F
:103C10001943818370470A460021018B4FF67F7359
:103C200019401143018370470A460021018BC1F3FB
:103C30000E014FF6FF7303EA022319430183704715
:103C40000A460021818B4FF67F731940114381830F
:103C500070470A460021818BC1F30E014FF6FF73B6
:103C600003EA02231943818370470A460021018C2D
:103C70004FF6FD7319401143018470470A46002135
:103C8000018C4FF6F77319401143018470470A46BF
:103C90000021018C4FF6DF7319404FF6FF7303EAE2
:103CA00002131943018470470A460021018C4FF624
:103CB0007F7319404FF6FF7303EA0213194301841F
:103CC00070470A460021018C4FF6FF5319404FF60A
:103CD000FF7303EA02231943018470470A46002157
:103CE000018C4FF2FF7319404FF6FF7303EA022372
:103CF0001943018470470A460021018C4DF6FF7379
:103D000019404FF6FF7303EA0233194301847047E9
:103D100030B5002301248C40A3B2048C9C4304845E
:103D2000048C02FA01F5ADB22C43048430BD30B5E9
:103D3000002304248C40A3B2048C9C430484048C90
:103D400002FA01F5ADB22C43048430BD828B4FF2F0
:103D5000FF331A408283828B4FF6FF7303EA0123FD
:103D60001A4382837047F0B50C46154600210022A5
:103D70000026078C4EF6FF7C07EA0C070784818B30
:103D8000028C4FF6FF7707EA043640F6FF473940CA
:103D90004FF6FF7707EA052739434FF6FF7707EA23
:103DA0000337394345F6FF773A4046F480573A43A4
:103DB00081830284F0BD828B4FF6F3731A408283B5
:103DC000828B0A4382837047F0B50C46154600216A
:103DD00000220026078C4FF6FF6C07EA0C070784C9
:103DE000818B028C4FF6FF7707EA04264FF60C779B
:103DF00039404FF6FF7707EA03172F4339434FF255
:103E0000FF573A4046F480773A4381830284F0BDFD
:103E1000028B4FF2FF331A400283028B4FF6FF737F
:103E200003EA01231A4302837047F0B50C46154696
:103E3000002100220026078C4FF6EF7C07EA0C07D2
:103E40000784018B028C4FF6FF7707EA041640F6D1
:103E5000FF4739404FF6FF7707EA033739434FF6FC
:103E6000FF7703E0000001400004014007EA052756
:103E700039434FF65F773A4046F010073A430183E3
:103E80000284F0BD028B4FF6F3731A400283028B5B
:103E90000A4302837047F0B50C4615460021002204
:103EA000068C4FF6FE773E400684018B028C4FF65F
:103EB0000C7631407E1C06EA03162E4331434FF642
:103EC000F576324044F00106324301830284F0BDAE
:103ED00070B505460C46208850B92389A2886188B0
:103EE0002846FFF7D8FFE1882846FFF7CBFF25E0FB
:103EF000208804280AD12389A28861882846FFF7F0
:103F000094FFE1882846FFF783FF17E02088082800
:103F10000AD12389A28861882846FFF755FFE188E6
:103F20002846FFF748FF09E02389A28861882846D0
:103F3000FFF719FFE1882846FFF708FF70BD002151
:103F400001804180012181800021C1800181704771
:103F50002DE9F04105460C4600260127608808B986
:103F6000022600E00026A088012801D1022700E0F7
:103F700001272088A0B92389A28861882846FFF7F5
:103F80008AFFE1882846FFF77DFF23893A463146BC
:103F90002846FFF74AFFE1882846FFF739FF13E07C
:103FA0002389A28861882846FFF73FFFE1882846D9
:103FB000FFF72EFF23893A4631462846FFF76BFF6D
:103FC000E1882846FFF75EFFBDE8F0810146486BB7
:103FD00070470146886B70470146C86B70470146C1
:103FE000086C70470A884B881A438B881A43CB8821
:103FF0001A430B891A434B891A438B891A43A0F839
:10400000442070470021018041808180C18001816E
:1040100041818181704731B1B0F8442042F40042BF
:10402000A0F8442005E0B0F84420C2F30E02A0F846
:104030004420704721B1828842F00402828004E06B
:1040400082884FF6FB731A408280704721B18288C4
:1040500042F00102828004E082884FF6FE731A402B
:10406000828070471AB183890B43838102E0838980
:104070008B43838170478182704702460020138AF8
:104080000B4201D0012000E000207047CA430282A9
:10409000704730B50246002000230024158A05EA47
:1040A0000103958905EA010413B10CB1012000E078
:1040B000002030BDCA430282704741EA0203A0F8E3
:1040C000483070471AB183890B43838102E08389AA
:1040D0008B438381704721B1828842F0080282803D
:1040E00004E082884FF6F7731A4082807047018996
:1040F0004FF6F8721140018170470A46002101898C
:104100004FF68F73194011430181704730B5044653
:104110000D4629462046FFF7F0FF208940F00700B2
:10412000208130BD2DE9F04104460D4616461F465C
:10413000602D06D13B46012231462046FFF775FE31
:1041400005E03B46012231462046FFF7A4FE294602
:104150002046FFF7D2FF208940F007002081BDE80C
:10416000F08130B50C4600210189C9B24FF6FF75C8
:1041700005EA0325154325432943018130BD2DE977
:10418000F04105460E4617469846002443463A46F7
:1041900031462846FFF7E5FF2C894FF6F8700440BA
:1041A00044F007044FF68F70044044F070042C81F3
:1041B000BDE8F081F0B504460D4616461F463B4665
:1041C000324629462046FFF7CCFF208940F4804044
:1041D0002081F0BD82884FF68F731A4082808288DA
:1041E0000A438280704702894FF6F8731A400281B1
:1041F00002890A430281704702894FF67F731A4091
:10420000028102890A4302817047F0B50C461546C7
:104210001E460021002200230189028B038C4FF6E9
:10422000F877394021434FF6FC473A4040F20117F6
:104230003A434FF6DD773B404FF6FF7707EA061724
:104240002F433B43018102830384F0BD21B1828867
:1042500042F08002828004E082884FF67F731A4029
:1042600082807047A0F850107047000010B50446D7
:10427000FA48844208D101211020FEF776FE002181
:104280001020FEF772FE57E0F548844209D1012163
:104290004804FEF759FE00214FF40030FEF754FEAB
:1042A0004AE0F048844209D101218804FEF74CFE1F
:1042B00000214FF48020FEF747FE3DE0EA488442AB
:1042C00009D10121C804FEF73FFE00214FF4002070
:1042D000FEF73AFE30E0E548844209D101210805A5
:1042E000FEF732FE00214FF48010FEF72DFE23E092
:1042F000DF48844208D101212020FEF736FE00214C
:104300002020FEF732FE17E0DA48844209D101216D
:104310008807FEF719FE00214FF08040FEF714FEDB
:104320000AE0D548844207D101214005FEF70CFE82
:1043300000216005FEF708FE10BD2DE9FF47054688
:104340000E460024A14600BFA046B08900B100BFC0
:104350002C8A24F44054F08804432C82AC8941F226
:104360000C608443B0883189084371890843044351
:10437000AC81AC8A24F44074B0890443AC826846B2
:10438000FEF773FCB548854202D0B948854202D198
:10439000DDF80C9001E0DDF80890A88910F4004FDA
:1043A00008D009EBC90000EB091031684900B0FBE7
:1043B000F1F707E009EBC90000EB0910316889004B
:1043C000B0FBF1F76420B7FBF0F004012009642191
:1043D00001FB1078A88910F4004F08D0322000EBC0
:1043E000C800B0FBF1F000F00700044308E0322001
:1043F00000EB08106421B0FBF1F000F00F00044363
:104400002C81BDE8FF874FF41651016000218180A7
:10441000C18001810C21418100218181704710B54B
:1044200002460020108A20F470600B884C882343D9
:104430008C882343CC8823431843108210BD00216D
:10444000018041808180C180704721B1828942F41E
:104450000052828104E082894DF6FF731A40828106
:104460007047028B02F47F420283028B0A4302836D
:10447000704721B1828942F40042828103E082893F
:10448000C2F30E028281704721B1828A42F4006237
:10449000828204E0828A4FF2FF731A408282704760
:1044A000C1F308028280704701468888C0F3080083
:1044B0007047028A4FF6F0731A400282028A0A435A
:1044C0000282704721B1828942F00202828104E0B7
:1044D00082894FF6FD731A408281704782894FF2BC
:1044E000FF731A40828182890A4382817047028A5F
:1044F0004FF6DF731A400282028A0A430282704733
:1045000021B1028A42F48042028204E0028A4BF620
:10451000FF731A4002827047818941F00101818155
:10452000704721B1828A42F00802828204E0828AC6
:104530004FF6F7731A4082827047028BD2B2028321
:10454000028B42EA01220283704721B1828A42F043
:104550002002828204E0828A4FF6DF731A40828250
:10456000704721B1828A42F01002828204E0828A7E
:104570004FF6EF731A4082827047828A4FF6FB73C0
:104580001A408282828A0A438282704721B1828ADB
:1045900042F00202828204E0828A4FF6FD731A40E2
:1045A000828270471AB1838A0B43838202E0838A36
:1045B0008B4383827047F0B5034600240026002514
:1045C0000020A1F510676A3F00D100BF1846C1F373
:1045D000421401F01F06012707FA06F5012C01D14C
:1045E0000C3004E0022C01D1103000E014301AB17C
:1045F00007682F43076002E00768AF430760F0BD1C
:1046000002460020B1F5007F00D100BF13880B42A5
:1046100001D0012000E00020704701F40072B2F5E3
:10462000007F00D100BFCA430280704770B50246C8
:104630000024002300250020A1F510666A3E00D169
:1046400000BFC1F3421501F01F03012606FA03F370
:10465000012D13D19689334017E00000001001406E
:104660000044004000480040004C00400050004022
:104670000014014000780040007C0040022D02D16F
:10468000168A334001E0968A33400C12012606FA5E
:1046900004F41688344013B10CB1012000E000206E
:1046A00070BD10B500220023A1F510646A3C00D152
:1046B00000BF0A1201249440A3B2DC43048010BD61
:1046C00010B501214806FEF70CFC00214FF00070E8
:1046D000FEF707FC10BD01210160002141608160EF
:1046E000C16001614FF48041416100218161C1617C
:1046F0004FF400610162002141628162C162016385
:1047000041638163C1634021016420214164002130
:104710008164C164016541658165C165016680216F
:10472000416600218166C166016741678167C16793
:104730004FF08061C0F880104910C0F8841000214B
:10474000C0F888104FF40011C0F88C100021C0F898
:104750009010C0F89410C0F89810C0F89C10C0F8E1
:10476000A0104FF00071C0F8A4104912C0F8A810B2
:104770008901C0F8AC104912C0F8B0100021C0F88F
:10478000B410C0F8B810704738B503460C46002185
:1047900000200090F748016901F01C014FF47840B7
:1047A00000EAC32001434FF4F86000EA841001439B
:1047B00041F0020141F00101EE484261016100BF98
:1047C0000098401C0090EB48016911F0010F03D0E4
:1047D000E94D0098A842F3D3E74D0098A84201D1D3
:1047E000002038BD0120FCE718B502460B46002129
:1047F00000200090DF48016901F01C014FF478406F
:1048000000EAC22001434FF4F86000EA831001433C
:1048100021F0020141F00101D648016100BF00987A
:10482000401C0090D348016911F0010F03D0D24C15
:104830000098A042F3D3D04C0098A04201D10020B0
:1048400018BDCC48406980B2FAE72DE9F04188B044
:1048500004460F464FF00008002500200790C74E81
:10486000029001200190C348056925F01C0503A8AA
:10487000FEF7FBF9049EC248864205D3C148864232
:1048800002D245F008051AE0BE48864205D3BB486F
:10489000864202D245F00C0511E0B848864203D3A7
:1048A000B948864200D20AE0B748864205D3B748E5
:1048B000864202D245F0040501E045F01005AD48FE
:1048C00005614FF4004200213846FFF75DFF10B943
:1048D000002001906AE0FF20FDF72BFE20680028F1
:1048E00050D000BF0298401C029001213846FFF7CB
:1048F0007BFF10F0040F03D19F4902988842F1D347
:104900009D490298884202D1002001904EE000208B
:1049100002904FF4805200213846FFF735FF08B966
:104920000020019000BF0298401C029001213846EF
:10493000FFF75AFF10F0200F03D18F4902988842E9
:10494000F1D38D490298884202D1002001902DE0D8
:104950000020029010213846FFF746FF804618F0ED
:10496000040F03D04FF40060206201E000202062B9
:1049700018F0020F02D00020606116E04FF4804072
:10498000606112E0206AC0F3CF006169C1F34F019A
:1049900040EA010200213846FFF7F6FE08B9002080
:1049A000019040F6FF70FDF7C4FD00BF019820B9EB
:1049B0004FF400602062C00060616E480568744872
:1049C0000540D4E901010843E1680843216908432F
:1049D00061690843A1690843E1690843216A084302
:1049E000616A0843A16A0843E16A0843216B0843EE
:1049F000616B084305435F48056005680120FDF7CA
:104A000098FD5C480560D4E90E010843216C084319
:104A1000616C0843A16C0843E16C0843216D0843B5
:104A2000616D084353494860084645680120FDF719
:104A300080FD504845604F49A06D8860E06DC860BA
:104A4000084685694FF641700540B4F86010606E05
:104A500040EA0140A16E0843E16E0843216F08431C
:104A6000616F084305434348856185690120FDF76F
:104A700060FD40488561D4E91E0108433D49C86195
:104A80000846C5690120FDF754FD3A48C561414813
:104A9000856941480540D4E920010843D4F88810CD
:104AA0000843D4F88C100843D4F890100843D4F885
:104AB00094100843D4F898100843D4F89C10084385
:104AC000D4F8A01008430543324885618569012068
:104AD000FDF72FFD2F488561D4E929010843D4F85B
:104AE000AC100843D4F8B0100843D4F8B41040EA2E
:104AF0008100D4F8B810084340F40000254908604C
:104B0000084605680120FDF714FD2248056000688D
:104B100040F080001F490860084605680120FDF745
:104B200008FD1C4805600198012802D108B0BDE8C5
:104B3000F0810020FAE730B11649896941F002019D
:104B4000144A916105E01349896921F00201114A73
:104B50009161704730B10F49896941F400510D4AA4
:104B6000916105E00B49896921F40051094A91617D
:104B70007047000000800240FFFF0400008793039D
:104B8000002D3101C00E160200E1F50580D1F008BC
:104B90000F8120FF00900240233FDEF808B500207F
:104BA0000090FA48806940F48010F849886108460E
:104BB000806900900120FDF7BCFCF44900988861F1
:104BC00008BD38B504460020009034B1F0480068B4
:104BD00040F00400EE49086005E0ED48006820F070
:104BE0000400EB490860EA48006800900120FDF7E6
:104BF000A0FCE7490098086038BD38B5044600209D
:104C0000009034B1E248006840F00800E0490860D4
:104C100005E0DF48006820F00800DD490860DC4856
:104C2000006800900120FDF784FCD94900980860D5
:104C300038BD10B50120FFF7E0FF0120FFF7C1FFED
:104C4000FFF7ACFF0120FFF785FF0120FFF773FF9F
:104C500010BD10B50020FFF77DFF0020FFF76BFFB0
:104C60000020FFF7AEFFFFF799FF0020FFF7C5FF19
:104C700010BD0020C649896911F0010F01D0012043
:104C800000E00020704708B500200090C04880690F
:104C900040F00100BE49886108468069009001200B
:104CA000FDF747FCBA490098886108BD38B504464D
:104CB0000020009034B1B648806940F00100B4494A
:104CC000886105E0B248806920F00100B049886140
:104CD000AF48806900900120FDF72BFCAC4900989B
:104CE000886138BD01460020A94A926B0A4201D072
:104CF000012000E00020704701460020A44A926B8A
:104D00000A4201D0012000E00020704729B1A04AEA
:104D1000D26B82439E4BDA6304E09D4AD26B02431E
:104D20009B4BDA63704710B50B794C7943EA042248
:104D3000974B03441A64CB781B068C7843EA0443F0
:104D40004C7843EA04230C7843EA0402904B034472
:104D50005A6410BD02468E4B1344186C030A4B7103
:104D600008718B4B1344586C030ECB70030C8B7083
:104D7000030A4B700870704738B504460D46002092
:104D8000009045B182482044006C40F000408049CA
:104D90002144086407E07E482044006C20F0004075
:104DA0007B49214408647A482044006C009001202B
:104DB000FDF7BFFB764921440098086438BD38B53B
:104DC00004460D4600200090082D08D0704820446D
:104DD000006C40F080406E492144086407E06C4854
:104DE0002044006C20F080406949214408646848F0
:104DF0002044006C00900120FDF79BFB6449214496
:104E00000098086438BD38B504460D46002000906F
:104E10005F482044006C20F07C505D4921440864C8
:104E20005B482044006C00900120FDF782FB58494C
:104E300021440098086456482044006C2843544993
:104E40002144086452482044006C00900120FDF782
:104E500070FB4F4921440098086438BD1EB50021FD
:104E600000220092019202924A4A12681268C2F32A
:104E70000D42111F0091484A126812680292464A78
:104E80001268126892680192424A1268D268414BD5
:104E90001A609DE81C0080E81C001EBD0FB50021B3
:104EA000019102910391009178E00099491C0091D1
:104EB00038490968096811F4007F14D03549096838
:104EC000096811F4807F0ED132490968324A1268AC
:104ED00011600121304A126891602E490968C96841
:104EE0002C4A11605AE02B490968096811F4807F47
:104EF00012D128490968096811F4007F0CD12649AC
:104F000009688968491C244A126891602149096826
:104F1000C968204A116041E01E4909681E4A1268AA
:104F200051601D4909688968491C1B4A12689160D3
:104F3000194909688968012904D116490968164A7E
:104F400012681160134909680968C1F30D41091F0E
:104F50000191114909688968012905D90E49096833
:104F600009688968029103E00A4909688968029121
:104F7000094909680968039106490968C968054A29
:104F8000116001A90EC980E80E000FBD009002401B
:104F9000008002406008002064080020F74909688A
:104FA000096811F0004F03D100990429FFF47DAF87
:104FB00001A90EC980E80E0000BFE6E770B5024601
:104FC000002300250024EE480068006810F0004F20
:104FD00001D0002070BDEA48016840F2F4508242DE
:104FE00008DD92FBF0F392FBF0F600FB162010B107
:104FF0005B1C00E00123012B0CD1086840F04050FD
:105000000860C2F30C004860086840F00040086087
:10501000C96826E0002422E0086820F040500860BB
:105020001CB9086840F08050086040F2F4504860B5
:10503000581EA0420DD1086840F000500860581E6C
:10504000C0EBC01000EB4000A2EB8005C5F30C00E4
:105050004860086840F000400860C968641C9C42D1
:10506000DAD3C7480160C748406910F0040F04D084
:105070000420C44E7061002070600120AAE770B562
:105080000C4613460021BD4D286000BF18E000EB20
:1050900041124FF00045156044F2F4555560C1EBE4
:1050A000C11505EB450504EB850595605D1E8D4238
:1050B00004D900EB41152035D56000E0D060491CD3
:1050C0009942E4D3AF4DE860AF4DB04E356070BD4E
:1050D000AA480068006810F0004F1DD1A74800687A
:1050E000006810F4807F17D0A84800688068401CD2
:1050F000A64909688860A54800688068012804D12D
:105100009E480068A149096808609C4800689F495A
:10511000096848600120704798480068006810F0EE
:10512000004F1ED195480068006810F4007F18D029
:1051300092480068006810F4807F12D18F480068A0
:105140009249096808600020904909684860012078
:105150008E490968886089480068C0688749086086
:105160001DE086480068006810F0004F17D18348A2
:105170000068006810F4007F11D180480068006862
:1051800010F4807F0BD1814800688068401C7F4903
:105190000968886079480068C0687849086000201C
:1051A000B9E730B50C4613460021754D286000BFA5
:1051B00015E000EB41124FF480151560C1EBC115ED
:1051C00005EB450504EB850595605D1E8D4204D910
:1051D00000EB41152035D56000E0D060491C9942B4
:1051E000E7D3684D286130BD0246002013680B42AA
:1051F00001D0012000E00020704701460868C0F39C
:10520000C3007047016841F000410160704721B15F
:10521000026842F08042026003E0026822F08042AD
:105220000260704702680A430260704702680A43DE
:105230000260704721B1026822F00062026003E060
:10524000026842F000620260704721B1026842F4D5
:105250008012026003E0026822F48012026070474C
:1052600021B1026822F08062026003E0026842F02D
:1052700080620260704710B541EA024443682343EC
:10528000436010BD0246002013680B4201D001208C
:1052900000E0002070470246002013690B4201D055
:1052A000012000E000207047016841F000410160EA
:1052B000704701460868C0F30D40704721B142684D
:1052C00022F00042426003E0426842F00042426045
:1052D0007047024619B15068C0F30C40704790887F
:1052E000C0F30C00FAE700B502460023106810F086
:1052F000004F0BD1106810F4004F07D1106810F464
:10530000807F03D01046FFF7D4FF0346184600BD48
:1053100038B504460020009034B11A48006840F0C7
:1053200080001849086005E01648006820F08000F9
:10533000144908601348006800900120FDF7F9F84F
:1053400010490098086038BD0E48006840F0010020
:105350000C490860704700200A49096811F0010FE4
:1053600001D0012000E00020704701460020054ADE
:1053700052690A420CD001200BE0000060080020B6
:105380005C08002000900240885300206408002040
:1053900000207047D9494861704729B1D74AD2697E
:1053A0000243D64BDA6104E0D44AD2698243D34B3C
:1053B000DA61704701460020D04A52690A4201D0A2
:1053C000012000E000207047CC4948617047CB487D
:1053D000406900F001007047C848406900F0400093
:1053E00070470020C549896911F4801F01D0012050
:1053F00000E00020704701460020C04A126A0A42BD
:1054000001D0012000E000207047BC48006AC0F3D2
:105410004A407047B948006A80B27047B748806C0C
:105420007047B648C06C7047B448006D7047B348C9
:10543000406D70470020B149486070470020AF4977
:1054400088607047AD494862704770B506460D46A2
:10545000002400213046FFF7C7F9044615B144F493
:10546000804402E04BF6FF700440224600213046A3
:10547000FFF78AF908B1012070BD0020FCE708B5EC
:10548000002000909E48C06A40F000409C49C862DD
:105490000846C06A00900120FDF74BF89849009833
:1054A000C86208BD38B5054600200090002400BF42
:1054B0000DE055F82400924988620846806A009001
:1054C0000120FDF736F88E4900988862641C082C8C
:1054D000EFD338BD38B504460020009034B1884879
:1054E000C06A40F400708649C86205E08448C06A1A
:1054F00020F400708249C8628148C06A009001208F
:10550000FDF717F87E490098C86238BD01460020B3
:105510007B4AD26A0A4201D0012000E00020704795
:1055200038B504460020009034B17548C06A40F098
:1055300004007349C86205E07148C06A20F00400A5
:105540006F49C8626E48C06A00900120FCF7F1FF05
:105550006B490098C86238BD38B5044600200090F9
:1055600034B16748C06A40F002006549C86205E08E
:105570006348C06A20F002006149C8626048C06A9E
:1055800000900120FCF7D5FF5D490098C86238BD46
:1055900038B504460020009034B15948C06A40F044
:1055A00001005749C86205E05548C06A20F0010073
:1055B0005349C8625248C06A00900120FCF7B9FF05
:1055C0004F490098C86238BD4E48006840F030002E
:1055D0004B49C1F8000170474A48006820F020009C
:1055E0004749C1F800010846D0F8000140F010001A
:1055F000C1F80001704738B14249096841F008011B
:105600003F4AC2F8001106E03E49096821F008014E
:105610003B4AC2F80011704738B13A49096841F075
:105620000401374AC2F8001106E03649096821F042
:105630000401334AC2F80011704738B13149096892
:1056400021F002012E4AC2F8001106E02D49096836
:1056500041F002012A4AC2F8001170472948006847
:1056600040F001002649C1F80001704710F0805F4A
:1056700012D020F0805039B1234A126822EA000289
:105680001F4BC3F80C2117E01F4A126842EA0002C0
:105690001B4BC3F80C210FE039B11C4A126822EAF7
:1056A0000002174BC3F8102106E0184A126842EABC
:1056B0000002134BC3F8102170470146002011F07F
:1056C000805F0BD0124A12680A4205D00E4A126857
:1056D0000A4201D101200CE000200AE00D4A1268C4
:1056E0000A4205D0084A12680A4201D1012000E0AE
:1056F0000020704701460248085870470090024059
:1057000000800240008102400C8102401081024072
:10571000048102400881024000F1080141604FF01D
:10572000FF31816000F10801C16001610021016069
:10573000704700210161704742684A6093688B603E
:10574000936859609160086103685B1C036070474F
:1057500010B502460B685C1C01D1106907E002F12C
:10576000080000E04068446824689C42FAD9446814
:105770004C604C68A160886041600A611468641CD8
:10578000146010BD01460A69D1E901309860D1E981
:10579000010358605068884201D188685060002039
:1057A00008611068401E10601068704770B50546AB
:1057B0000E462C462CB940F21B12FAA1FEA00CF0AA
:1057C0008BF802F06CFED4E90F12206801FB020096
:1057D00060600020A0632068A060E06B401E226C27
:1057E000216800FB0210E060FF2084F8440084F888
:1057F00045009EB9206908B9012000E00020A8B941
:1058000004F1100001F0F3FD80B14FF08050EE493B
:105810000860BFF34F8FBFF36F8F07E004F11000F4
:10582000FFF77AFF04F12400FFF776FF02F05BFE3A
:10583000012070BD2DE9F04106460D4617469846F9
:10584000069C0DB9246000E02760E6632564012111
:105850002046FFF7ABFF84F850800020A064BDE82D
:10586000F0812DE9F84305460E4690460DB1012022
:1058700000E0002028B94FF4C472CAA1CEA00CF0F9
:105880002BF80EB9002701E005FB06F707F15400DD
:1058900002F017FF044644B104F1540943464A4656
:1058A000314628460094FFF7C5FF2046BDE8F8833F
:1058B0002DE9F04104460F4615464FF00008A66B4F
:1058C000206C40B9206860BB606801F0EEFE804645
:1058D0000020606025E07DB93946226CA0680CF09C
:1058E00036F9216CA0680844A060D4E90110884210
:1058F00017D32068A06014E03946226CE0680CF0F1
:1059000026F9216CE068401AE0602168E06888426E
:1059100003D2216C6068401AE060022D01D106B10B
:10592000761E701CA0634046BDE8F0812DE9F3416E
:105930000D460098846C00272CB940F6CE1299A130
:105940009DA00BF0C9FFA06BE16B884201D2012042
:1059500000E0002028B940F6CF1292A196A00BF0EB
:10596000BBFFA06BE16B88421BD294F945602A46CD
:1059700069462046FFF79CFF0746701C0CD1606A01
:1059800008B9012000E0002050B904F1240001F022
:105990002EFD28B1012703E0701C40B284F84500B9
:1059A00000BF3846BDE8FC8170B5044602F077FDC3
:1059B00094F945501AE0A06C38B100212046FFF759
:1059C000B5FF88B101F0E7FD0EE0606A08B901207B
:1059D00000E0002038B904F1240001F008FD18B1FE
:1059E00001F0D9FD00E003E0681E45B2002DE2DCC5
:1059F00000BFFF2084F8450002F075FD02F04FFD66
:105A000094F9445010E0206908B9012000E000201A
:105A100048B904F1100001F0EAFC08B101F0BBFD47
:105A2000681E45B200E001E0002DECDC00BFFF2065
:105A300084F8440002F057FD70BD70B5054602F0D1
:105A40002EFDA86BE96B884201D1012400E00024FF
:105A500002F049FD204670BD2DE9FF4383B00646A4
:105A600088461D464FF0000934462CB940F2D92231
:105A70004CA151A00BF030FFB8F1000F01D1206C08
:105A800008B9012000E0002028B940F2DA2245A13F
:105A900049A00BF021FF022D02D1E06B012801D1BA
:105AA000012000E0002028B940F2DB223DA142A005
:105AB0000BF012FF01F09BFD08B9059808B9012011
:105AC00000E0002028B940F2DE2236A13AA00BF017
:105AD00003FF00BF02F0E3FCA06BE16B884201D33F
